:03000000020A17DA
:0C0A1700787FE4F6D8FD75810702080026
:10080000E4F5A07F381209FB1209EC7F801209FB86
:100810001209EC7F0C1209FB1209EC7F46120A093F
:100820001209EC7F41120A091209EC7F48120A09E9
:100830001209EC7F49120A091209EC7F4D120A09CC
:100840001209EC7F20120A091209EC7F41120A09F1
:100850001209EC7F48120A091209EC7F41120A09B9
:100860001209EC7F4D120A091209EC7F4D120A0998
:100870001209EC7F41120A091209EC7F44120A099D
:100880001209EC7F20120A091209EC7F32120A09C0
:100890001209EC7F30120A091209EC7F31120A09A1
:1008A0001209EC7F39120A091209EC7F30120A0989
:1008B0001209EC7F30120A091209EC7F30120A0982
:1008C0001209EC7F30120A091209EC7F31120A0971
:1008D0001209EC7F30120A091209EC7F31120A0961
:1008E0001209EC7F30120A091209EC7F33120A094F
:1008F0001209EC1209EC1209EC7FC01209FB120973
:10090000EC7F43120A091209EC7F53120A091209FB
:10091000EC7F45120A091209EC7F20120A0912091C
:10092000EC7F44120A091209EC7F50120A091209DD
:10093000EC7F54120A091209EC7F2E120A091209DF
:10094000EC7F20120A091209EC7F53120A091209DE
:10095000EC7F4F120A091209EC7F55120A0912099D
:10096000EC7F54120A091209EC7F48120A09120995
:10097000EC7F45120A091209EC7F41120A0912099B
:10098000EC7F53120A091209EC7F54120A0912096A
:10099000EC7F20120A091209EC7F55120A0912098C
:1009A000EC7F4E120A091209EC7F49120A0912095A
:1009B000EC7F56120A091209EC7F45120A09120946
:1009C000EC7F52120A091209EC7F53120A0912092C
:1009D000EC7F49120A091209EC7F54120A09120924
:0C09E000EC7F59120A091209EC0208030E
:0E09FB008FA0C2B0C2B1D2B21209ECC2B222B9
:0E0A09008FA0D2B0C2B1D2B21209ECC2B2229A
:0E09EC00E4FFFE0FBF00010EBE13F8BF88F53A
:0109FA0022DA
:00000001FF
